{
  "contractName": "Board",
  "abi": [
    {
      "inputs": [],
      "payable": false,
      "stateMutability": "nonpayable",
      "type": "constructor"
    },
    {
      "constant": false,
      "inputs": [
        {
          "name": "_sentence",
          "type": "string"
        }
      ],
      "name": "contribute",
      "outputs": [],
      "payable": false,
      "stateMutability": "nonpayable",
      "type": "function"
    },
    {
      "constant": true,
      "inputs": [],
      "name": "getSentence",
      "outputs": [
        {
          "name": "",
          "type": "string[]"
        }
      ],
      "payable": false,
      "stateMutability": "view",
      "type": "function"
    },
    {
      "constant": false,
      "inputs": [
        {
          "name": "_sentence",
          "type": "string"
        }
      ],
      "name": "donate",
      "outputs": [],
      "payable": true,
      "stateMutability": "payable",
      "type": "function"
    },
    {
      "constant": true,
      "inputs": [
        {
          "name": "_sentence",
          "type": "string"
        }
      ],
      "name": "getValue",
      "outputs": [
        {
          "name": "",
          "type": "uint256"
        }
      ],
      "payable": false,
      "stateMutability": "view",
      "type": "function"
    },
    {
      "constant": true,
      "inputs": [
        {
          "name": "_sentence",
          "type": "string"
        }
      ],
      "name": "getDetail",
      "outputs": [
        {
          "components": [
            {
              "name": "contributer",
              "type": "address"
            },
            {
              "name": "value",
              "type": "uint256"
            }
          ],
          "name": "",
          "type": "tuple"
        }
      ],
      "payable": false,
      "stateMutability": "view",
      "type": "function"
    }
  ],
  "bytecode": "0x608060405234801561001057600080fd5b5033600360006101000a81548173ffffffffffffffffffffffffffffffffffffffff021916908373ffffffffffffffffffffffffffffffffffffffff160217905550610ab8806100616000396000f3fe60806040526004361061006d576000357c0100000000000000000000000000000000000000000000000000000000900463ffffffff16806334b3c304146100725780635c43217b146100af578063960384a0146100d8578063b5aebc8014610115578063ef738a5614610131575b600080fd5b34801561007e57600080fd5b50610099600480360361009491908101906107dc565b61015c565b6040516100a69190610930565b60405180910390f35b3480156100bb57600080fd5b506100d660048036036100d191908101906107dc565b610241565b005b3480156100e457600080fd5b506100ff60048036036100fa91908101906107dc565b6103fc565b60405161010c919061094b565b60405180910390f35b61012f600480360361012a91908101906107dc565b610474565b005b34801561013d57600080fd5b506101466105c8565b604051610153919061090e565b60405180910390f35b6101646106b1565b6002826040518082805190602001908083835b60208310151561019c5780518252602082019150602081019050602083039250610177565b6001836020036101000a03801982511681845116808217855250505050505090500191505090815260200160405180910390206040805190810160405290816000820160009054906101000a900473ffffffffffffffffffffffffffffffffffffffff1673ffffffffffffffffffffffffffffffffffffffff1673ffffffffffffffffffffffffffffffffffffffff1681526020016001820154815250509050919050565b600081908060018154018082558091505090600182039060005260206000200160009091929091909150908051906020019061027e9291906106e1565b50506102886106b1565b60408051908101604052803373ffffffffffffffffffffffffffffffffffffffff168152602001600081525090506001819080600181540180825580915050906001820390600052602060002090600202016000909192909190915060008201518160000160006101000a81548173ffffffffffffffffffffffffffffffffffffffff021916908373ffffffffffffffffffffffffffffffffffffffff16021790555060208201518160010155505050806002836040518082805190602001908083835b602083101515610371578051825260208201915060208101905060208303925061034c565b6001836020036101000a038019825116818451168082178552505050505050905001915050908152602001604051809103902060008201518160000160006101000a81548173ffffffffffffffffffffffffffffffffffffffff021916908373ffffffffffffffffffffffffffffffffffffffff160217905550602082015181600101559050505050565b60006002826040518082805190602001908083835b6020831015156104365780518252602082019150602081019050602083039250610411565b6001836020036101000a0380198251168184511680821785525050505050509050019150509081526020016040518091039020600101549050919050565b6002816040518082805190602001908083835b6020831015156104ac5780518252602082019150602081019050602083039250610487565b6001836020036101000a038019825116818451168082178552505050505050905001915050908152602001604051809103902060000160009054906101000a900473ffffffffffffffffffffffffffffffffffffffff1673ffffffffffffffffffffffffffffffffffffffff166108fc349081150290604051600060405180830381858888f19350505050158015610548573d6000803e3d6000fd5b50346002826040518082805190602001908083835b602083101515610582578051825260208201915060208101905060208303925061055d565b6001836020036101000a03801982511681845116808217855250505050505090500191505090815260200160405180910390206001016000828254019250508190555050565b60606000805480602002602001604051908101604052809291908181526020016000905b828210156106a8578382906000526020600020018054600181600116156101000203166002900480601f0160208091040260200160405190810160405280929190818152602001828054600181600116156101000203166002900480156106945780601f1061066957610100808354040283529160200191610694565b820191906000526020600020905b81548152906001019060200180831161067757829003601f168201915b5050505050815260200190600101906105ec565b50505050905090565b6040805190810160405280600073ffffffffffffffffffffffffffffffffffffffff168152602001600081525090565b828054600181600116156101000203166002900490600052602060002090601f016020900481019282601f1061072257805160ff1916838001178555610750565b82800160010185558215610750579182015b8281111561074f578251825591602001919060010190610734565b5b50905061075d9190610761565b5090565b61078391905b8082111561077f576000816000905550600101610767565b5090565b90565b600082601f830112151561079957600080fd5b81356107ac6107a782610993565b610966565b915080825260208301602083018583830111156107c857600080fd5b6107d3838284610a2b565b50505092915050565b6000602082840312156107ee57600080fd5b600082013567ffffffffffffffff81111561080857600080fd5b61081484828501610786565b91505092915050565b610826816109ef565b82525050565b6000610837826109cc565b80845260208401935083602082028501610850856109bf565b60005b8481101561088957838303885261086b83835161089a565b9250610876826109e2565b9150602088019750600181019050610853565b508196508694505050505092915050565b60006108a5826109d7565b8084526108b9816020860160208601610a3a565b6108c281610a6d565b602085010191505092915050565b6040820160008201516108e6600085018261081d565b5060208201516108f960208501826108ff565b50505050565b61090881610a21565b82525050565b60006020820190508181036000830152610928818461082c565b905092915050565b600060408201905061094560008301846108d0565b92915050565b600060208201905061096060008301846108ff565b92915050565b6000604051905081810181811067ffffffffffffffff8211171561098957600080fd5b8060405250919050565b600067ffffffffffffffff8211156109aa57600080fd5b601f19601f8301169050602081019050919050565b6000602082019050919050565b600081519050919050565b600081519050919050565b6000602082019050919050565b60006109fa82610a01565b9050919050565b600073ffffffffffffffffffffffffffffffffffffffff82169050919050565b6000819050919050565b82818337600083830152505050565b60005b83811015610a58578082015181840152602081019050610a3d565b83811115610a67576000848401525b50505050565b6000601f19601f830116905091905056fea265627a7a723058204837db7915b7d6d8e7ce49aeb29f0a1f97beeea7e5b90b2dd126fe1e3a98ab8f6c6578706572696d656e74616cf50037",
  "source": "pragma solidity ^0.5.0;\npragma experimental ABIEncoderV2;\n\ncontract Board {\n    struct Contribution {\n        address payable contributer;\n        uint value;\n    }\n    \n    string[] sentences;\n    Contribution[] Contributions;\n    \n    mapping(string => Contribution) sentence_to_contribution;\n    \n    address owner;\n    \n    modifier onlyOwner() {\n        require(msg.sender == owner);\n        _;\n    }\n    \n    constructor() public {\n        owner = msg.sender;\n    }\n    \n    function contribute(string memory _sentence) public {\n        sentences.push(_sentence);\n        Contribution memory new_contribution = Contribution(msg.sender, 0);\n        Contributions.push(new_contribution);\n        sentence_to_contribution[_sentence] = new_contribution;\n    }\n    \n    function getSentence() public view  returns(string[] memory) {\n        return sentences;\n    }\n    \n    function donate(string memory _sentence) public payable {\n        sentence_to_contribution[_sentence].contributer.transfer(msg.value);\n        sentence_to_contribution[_sentence].value += msg.value;\n    }\n    \n    function getValue(string memory _sentence) public view returns(uint) {\n        return sentence_to_contribution[_sentence].value;\n    }\n    \n    function getDetail(string memory _sentence) public view returns(Contribution memory) {\n        return sentence_to_contribution[_sentence];\n    }\n}",
  "sourcePath": "/Users/hikishiritakatoshi/Desktop/1125/contracts/Board.sol",
  "compiler": {
    "name": "solc",
    "version": "0.5.0+commit.1d4f565a.Emscripten.clang"
  },
  "schemaVersion": "3.0.9",
  "updatedAt": "2019-10-15T05:38:31.175Z",
  "devdoc": {
    "methods": {}
  },
  "userdoc": {
    "methods": {}
  }
}