{
  "contractName": "Board",
  "abi": [
    {
      "inputs": [],
      "payable": false,
      "stateMutability": "nonpayable",
      "type": "constructor"
    },
    {
      "constant": false,
      "inputs": [
        {
          "name": "_sentence",
          "type": "string"
        }
      ],
      "name": "contribute",
      "outputs": [],
      "payable": false,
      "stateMutability": "nonpayable",
      "type": "function"
    },
    {
      "constant": false,
      "inputs": [],
      "name": "getSentence",
      "outputs": [
        {
          "name": "",
          "type": "string[]"
        }
      ],
      "payable": false,
      "stateMutability": "nonpayable",
      "type": "function"
    },
    {
      "constant": false,
      "inputs": [
        {
          "name": "_index",
          "type": "uint256"
        }
      ],
      "name": "donate",
      "outputs": [],
      "payable": true,
      "stateMutability": "payable",
      "type": "function"
    },
    {
      "constant": true,
      "inputs": [
        {
          "name": "_index",
          "type": "uint256"
        }
      ],
      "name": "getValue",
      "outputs": [
        {
          "name": "",
          "type": "uint256"
        }
      ],
      "payable": false,
      "stateMutability": "view",
      "type": "function"
    },
    {
      "constant": true,
      "inputs": [
        {
          "name": "_index",
          "type": "uint256"
        }
      ],
      "name": "getAddress",
      "outputs": [
        {
          "components": [
            {
              "name": "contributer",
              "type": "address"
            },
            {
              "name": "value",
              "type": "uint256"
            }
          ],
          "name": "",
          "type": "address"
        }
      ],
      "payable": false,
      "stateMutability": "view",
      "type": "function"
    },
    {
      "constant": true,
      "inputs": [
        {
          "name": "_index",
          "type": "uint256"
        }
      ],
      "name": "getContributes",
      "outputs": [
        {
          "name": "",
          "type": "tuple[]",
          "components": [
            {
              "name": "sentence",
              "type": "string"
            },
            {
              "name": "contributer",
              "type": "address"
            },
            {
              "name": "value",
              "type": "uint256"
            },
            {
              "name": "id",
              "type": "uint256"
            }
          ]
        }
      ],
      "payable": false,
      "stateMutability": "view",
      "type": "function"
    }
  ],
  "bytecode": "0x608060405234801561001057600080fd5b5033600160006101000a81548173ffffffffffffffffffffffffffffffffffffffff021916908373ffffffffffffffffffffffffffffffffffffffff160217905550610c8e806100616000396000f3fe608060405260043610610078576000357c0100000000000000000000000000000000000000000000000000000000900463ffffffff1680630ff4c9161461007d57806342bd2647146100ba5780635c43217b146100e5578063b93f9b0a1461010e578063ef738a561461014b578063f14faf6f14610176575b600080fd5b34801561008957600080fd5b506100a4600480360361009f91908101906108b6565b610192565b6040516100b19190610ae0565b60405180910390f35b3480156100c657600080fd5b506100cf6101bb565b6040516100dc9190610abe565b60405180910390f35b3480156100f157600080fd5b5061010c60048036036101079190810190610875565b610327565b005b34801561011a57600080fd5b50610135600480360361013091908101906108b6565b61042b565b6040516101429190610a81565b60405180910390f35b34801561015757600080fd5b50610160610474565b60405161016d9190610a9c565b60405180910390f35b610190600480360361018b91908101906108b6565b6105e8565b005b600080828154811015156101a257fe5b9060005260206000209060040201600201549050919050565b60606000805480602002602001604051908101604052809291908181526020016000905b8282101561031e578382906000526020600020906004020160806040519081016040529081600082018054600181600116156101000203166002900480601f01602080910402602001604051908101604052809291908181526020018280546001816001161561010002031660029004801561029c5780601f106102715761010080835404028352916020019161029c565b820191906000526020600020905b81548152906001019060200180831161027f57829003601f168201915b505050505081526020016001820160009054906101000a900473ffffffffffffffffffffffffffffffffffffffff1673ffffffffffffffffffffffffffffffffffffffff1673ffffffffffffffffffffffffffffffffffffffff16815260200160028201548152602001600382015481525050815260200190600101906101df565b50505050905090565b61032f6106a0565b6080604051908101604052808381526020013373ffffffffffffffffffffffffffffffffffffffff1681526020016000815260200160025481525090506000819080600181540180825580915050906001820390600052602060002090600402016000909192909190915060008201518160000190805190602001906103b69291906106df565b5060208201518160010160006101000a81548173ffffffffffffffffffffffffffffffffffffffff021916908373ffffffffffffffffffffffffffffffffffffffff16021790555060408201518160020155606082015181600301555050506002600081548092919060010191905055505050565b6000808281548110151561043b57fe5b906000526020600020906004020160010160009054906101000a900473ffffffffffffffffffffffffffffffffffffffff169050919050565b606060008090505b60008054905081101561050057600360008281548110151561049a57fe5b906000526020600020906004020160000190806001815401808255809150509060018203906000526020600020016000909192909190915090805460018160011615610100020316600290046104f192919061075f565b5050808060010191505061047c565b506003805480602002602001604051908101604052809291908181526020016000905b828210156105df578382906000526020600020018054600181600116156101000203166002900480601f0160208091040260200160405190810160405280929190818152602001828054600181600116156101000203166002900480156105cb5780601f106105a0576101008083540402835291602001916105cb565b820191906000526020600020905b8154815290600101906020018083116105ae57829003601f168201915b505050505081526020019060010190610523565b50505050905090565b6000818154811015156105f757fe5b906000526020600020906004020160010160009054906101000a900473ffffffffffffffffffffffffffffffffffffffff1673ffffffffffffffffffffffffffffffffffffffff166108fc349081150290604051600060405180830381858888f1935050505015801561066e573d6000803e3d6000fd5b503460008281548110151561067f57fe5b90600052602060002090600402016002016000828254019250508190555050565b60806040519081016040528060608152602001600073ffffffffffffffffffffffffffffffffffffffff16815260200160008152602001600081525090565b828054600181600116156101000203166002900490600052602060002090601f016020900481019282601f1061072057805160ff191683800117855561074e565b8280016001018555821561074e579182015b8281111561074d578251825591602001919060010190610732565b5b50905061075b91906107e6565b5090565b828054600181600116156101000203166002900490600052602060002090601f016020900481019282601f1061079857805485556107d5565b828001600101855582156107d557600052602060002091601f016020900482015b828111156107d45782548255916001019190600101906107b9565b5b5090506107e291906107e6565b5090565b61080891905b808211156108045760008160009055506001016107ec565b5090565b90565b600082601f830112151561081e57600080fd5b813561083161082c82610b28565b610afb565b9150808252602083016020830185838301111561084d57600080fd5b610858838284610c01565b50505092915050565b600061086d8235610bf7565b905092915050565b60006020828403121561088757600080fd5b600082013567ffffffffffffffff8111156108a157600080fd5b6108ad8482850161080b565b91505092915050565b6000602082840312156108c857600080fd5b60006108d684828501610861565b91505092915050565b6108e881610bbb565b82525050565b6108f781610ba9565b82525050565b600061090882610b6e565b8084526020840193508360208202850161092185610b54565b60005b8481101561095a57838303885261093c8383516109d9565b925061094782610b8f565b9150602088019750600181019050610924565b508196508694505050505092915050565b600061097682610b79565b8084526020840193508360208202850161098f85610b61565b60005b848110156109c85783830388526109aa838351610a0f565b92506109b582610b9c565b9150602088019750600181019050610992565b508196508694505050505092915050565b60006109e482610b84565b8084526109f8816020860160208601610c10565b610a0181610c43565b602085010191505092915050565b60006080830160008301518482036000860152610a2c82826109d9565b9150506020830151610a4160208601826108df565b506040830151610a546040860182610a72565b506060830151610a676060860182610a72565b508091505092915050565b610a7b81610bed565b82525050565b6000602082019050610a9660008301846108ee565b92915050565b60006020820190508181036000830152610ab681846108fd565b905092915050565b60006020820190508181036000830152610ad8818461096b565b905092915050565b6000602082019050610af56000830184610a72565b92915050565b6000604051905081810181811067ffffffffffffffff82111715610b1e57600080fd5b8060405250919050565b600067ffffffffffffffff821115610b3f57600080fd5b601f19601f8301169050602081019050919050565b6000602082019050919050565b6000602082019050919050565b600081519050919050565b600081519050919050565b600081519050919050565b6000602082019050919050565b6000602082019050919050565b6000610bb482610bcd565b9050919050565b6000610bc682610bcd565b9050919050565b600073ffffffffffffffffffffffffffffffffffffffff82169050919050565b6000819050919050565b6000819050919050565b82818337600083830152505050565b60005b83811015610c2e578082015181840152602081019050610c13565b83811115610c3d576000848401525b50505050565b6000601f19601f830116905091905056fea265627a7a7230582095534a1d7316e7be3e013eb8776f1f6da4c7b91eef2ff5445520a3e1eac8a1356c6578706572696d656e74616cf50037",
  "source": "pragma solidity ^0.5.0;\npragma experimental ABIEncoderV2;\n\ncontract Board {\n    struct Contribution {\n        string sentence;\n        address payable contributer;\n        uint value;\n        uint id;\n    }\n    \n    Contribution[] Contributions;\n    \n    address owner;\n    uint index;\n    string[] sentences;\n    \n    modifier onlyOwner() {\n        require(msg.sender == owner);\n        _;\n    }\n    \n    constructor() public {\n        owner = msg.sender;\n    }\n    \n    function contribute(string memory _sentence) public {\n        Contribution memory new_contribution = Contribution(_sentence,msg.sender, 0, index);\n        Contributions.push(new_contribution);\n        index++;\n    }\n    \n    function getSentence() public returns(string[] memory) {\n        for(uint i = 0; i < Contributions.length; i++) {\n            sentences.push(Contributions[i].sentence);\n        }\n        return sentences;\n    }\n    \n    function donate(uint _index) public payable {\n        Contributions[_index].contributer.transfer(msg.value);\n        Contributions[_index].value += msg.value;\n    }\n    \n    function getValue(uint _index) public view returns(uint) {\n        return Contributions[_index].value;\n    }\n    \n    function getAddress(uint _index) public view returns(address) {\n        return Contributions[_index].contributer;\n    }\n    \n    function getContributes() public view returns(Contribution[] memory) {\n        return Contributions;\n    }\n}",
  "sourcePath": "/Users/hikishiritakatoshi/Desktop/1125/contracts/Board.sol",
  "compiler": {
    "name": "solc",
    "version": "0.5.0+commit.1d4f565a.Emscripten.clang"
  },
  "schemaVersion": "3.0.9",
  "updatedAt": "2019-10-15T08:19:56.555Z",
  "devdoc": {
    "methods": {}
  },
  "userdoc": {
    "methods": {}
  }
}